{
  "_format": "hh-sol-artifact-1",
  "contractName": "Transactions",
  "sourceName": "contracts/Transactions.sol",
  "abi": [
    {
      "anonymous": false,
      "inputs": [
        {
          "indexed": false,
          "internalType": "address",
          "name": "from",
          "type": "address"
        },
        {
          "indexed": false,
          "internalType": "address",
          "name": "to",
          "type": "address"
        },
        {
          "indexed": false,
          "internalType": "uint256",
          "name": "amount",
          "type": "uint256"
        },
        {
          "indexed": false,
          "internalType": "string",
          "name": "message",
          "type": "string"
        },
        {
          "indexed": false,
          "internalType": "uint256",
          "name": "transferTime",
          "type": "uint256"
        },
        {
          "indexed": false,
          "internalType": "string",
          "name": "keyword",
          "type": "string"
        }
      ],
      "name": "Tranfer",
      "type": "event"
    },
    {
      "inputs": [
        {
          "internalType": "address payable",
          "name": "_to",
          "type": "address"
        },
        {
          "internalType": "uint256",
          "name": "_amount",
          "type": "uint256"
        },
        {
          "internalType": "string",
          "name": "_message",
          "type": "string"
        },
        {
          "internalType": "string",
          "name": "_keyword",
          "type": "string"
        }
      ],
      "name": "addTransaction",
      "outputs": [],
      "stateMutability": "nonpayable",
      "type": "function"
    },
    {
      "inputs": [],
      "name": "getAllTransactions",
      "outputs": [
        {
          "components": [
            {
              "internalType": "address",
              "name": "sender",
              "type": "address"
            },
            {
              "internalType": "address",
              "name": "receiver",
              "type": "address"
            },
            {
              "internalType": "uint256",
              "name": "amount",
              "type": "uint256"
            },
            {
              "internalType": "string",
              "name": "message",
              "type": "string"
            },
            {
              "internalType": "uint256",
              "name": "transferTime",
              "type": "uint256"
            },
            {
              "internalType": "string",
              "name": "keyword",
              "type": "string"
            }
          ],
          "internalType": "struct Transactions.Transaction[]",
          "name": "",
          "type": "tuple[]"
        }
      ],
      "stateMutability": "view",
      "type": "function"
    },
    {
      "inputs": [],
      "name": "getTransactionCount",
      "outputs": [
        {
          "internalType": "uint256",
          "name": "",
          "type": "uint256"
        }
      ],
      "stateMutability": "view",
      "type": "function"
    },
    {
      "inputs": [
        {
          "internalType": "uint256",
          "name": "",
          "type": "uint256"
        }
      ],
      "name": "transactions",
      "outputs": [
        {
          "internalType": "address",
          "name": "sender",
          "type": "address"
        },
        {
          "internalType": "address",
          "name": "receiver",
          "type": "address"
        },
        {
          "internalType": "uint256",
          "name": "amount",
          "type": "uint256"
        },
        {
          "internalType": "string",
          "name": "message",
          "type": "string"
        },
        {
          "internalType": "uint256",
          "name": "transferTime",
          "type": "uint256"
        },
        {
          "internalType": "string",
          "name": "keyword",
          "type": "string"
        }
      ],
      "stateMutability": "view",
      "type": "function"
    }
  ],
  "bytecode": "0x608060405234801561001057600080fd5b50610cab806100206000396000f3fe608060405234801561001057600080fd5b506004361061004c5760003560e01c806327506f53146100515780632e7700f01461006f5780636d1b6bb11461008d5780639ace38c2146100a9575b600080fd5b6100596100de565b60405161006691906107c0565b60405180910390f35b6100776100e3565b60405161008491906107f1565b60405180910390f35b6100a760048036038101906100a291906108e5565b6100ec565b005b6100c360048036038101906100be919061098c565b61033c565b6040516100d596959493929190610a12565b60405180910390f35b606090565b60008054905090565b60016000808282546100fe9190610ab0565b9250508190555060016040518060c001604052803373ffffffffffffffffffffffffffffffffffffffff1681526020018873ffffffffffffffffffffffffffffffffffffffff16815260200187815260200186868080601f016020809104026020016040519081016040528093929190818152602001838380828437600081840152601f19601f82011690508083019250505050505050815260200142815260200184848080601f016020809104026020016040519081016040528093929190818152602001838380828437600081840152601f19601f82011690508083019250505050505050815250908060018154018082558091505060019003906000526020600020906006020160009091909190915060008201518160000160006101000a81548173ffffffffffffffffffffffffffffffffffffffff021916908373ffffffffffffffffffffffffffffffffffffffff16021790555060208201518160010160006101000a81548173ffffffffffffffffffffffffffffffffffffffff021916908373ffffffffffffffffffffffffffffffffffffffff1602179055506040820151816002015560608201518160030190805190602001906102c59291906104d8565b506080820151816004015560a08201518160050190805190602001906102ec9291906104d8565b5050507f0223fa3e881abb2c01cea41bc2ae1ca85aee5730afbab7debaf625f7c787c5c6338787878742888860405161032c989796959493929190610ba1565b60405180910390a1505050505050565b6001818154811061034c57600080fd5b90600052602060002090600602016000915090508060000160009054906101000a900473ffffffffffffffffffffffffffffffffffffffff16908060010160009054906101000a900473ffffffffffffffffffffffffffffffffffffffff16908060020154908060030180546103c190610c43565b80601f01602080910402602001604051908101604052809291908181526020018280546103ed90610c43565b801561043a5780601f1061040f5761010080835404028352916020019161043a565b820191906000526020600020905b81548152906001019060200180831161041d57829003601f168201915b50505050509080600401549080600501805461045590610c43565b80601f016020809104026020016040519081016040528092919081815260200182805461048190610c43565b80156104ce5780601f106104a3576101008083540402835291602001916104ce565b820191906000526020600020905b8154815290600101906020018083116104b157829003601f168201915b5050505050905086565b8280546104e490610c43565b90600052602060002090601f016020900481019282610506576000855561054d565b82601f1061051f57805160ff191683800117855561054d565b8280016001018555821561054d579182015b8281111561054c578251825591602001919060010190610531565b5b50905061055a919061055e565b5090565b5b8082111561057757600081600090555060010161055f565b5090565b600081519050919050565b600082825260208201905092915050565b6000819050602082019050919050565b600073ffffffffffffffffffffffffffffffffffffffff82169050919050565b60006105d2826105a7565b9050919050565b6105e2816105c7565b82525050565b6000819050919050565b6105fb816105e8565b82525050565b600081519050919050565b600082825260208201905092915050565b60005b8381101561063b578082015181840152602081019050610620565b8381111561064a576000848401525b50505050565b6000601f19601f8301169050919050565b600061066c82610601565b610676818561060c565b935061068681856020860161061d565b61068f81610650565b840191505092915050565b600060c0830160008301516106b260008601826105d9565b5060208301516106c560208601826105d9565b5060408301516106d860408601826105f2565b50606083015184820360608601526106f08282610661565b915050608083015161070560808601826105f2565b5060a083015184820360a086015261071d8282610661565b9150508091505092915050565b6000610736838361069a565b905092915050565b6000602082019050919050565b60006107568261057b565b6107608185610586565b93508360208202850161077285610597565b8060005b858110156107ae578484038952815161078f858261072a565b945061079a8361073e565b925060208a01995050600181019050610776565b50829750879550505050505092915050565b600060208201905081810360008301526107da818461074b565b905092915050565b6107eb816105e8565b82525050565b600060208201905061080660008301846107e2565b92915050565b600080fd5b600080fd5b6000610821826105a7565b9050919050565b61083181610816565b811461083c57600080fd5b50565b60008135905061084e81610828565b92915050565b61085d816105e8565b811461086857600080fd5b50565b60008135905061087a81610854565b92915050565b600080fd5b600080fd5b600080fd5b60008083601f8401126108a5576108a4610880565b5b8235905067ffffffffffffffff8111156108c2576108c1610885565b5b6020830191508360018202830111156108de576108dd61088a565b5b9250929050565b600080600080600080608087890312156109025761090161080c565b5b600061091089828a0161083f565b965050602061092189828a0161086b565b955050604087013567ffffffffffffffff81111561094257610941610811565b5b61094e89828a0161088f565b9450945050606087013567ffffffffffffffff81111561097157610970610811565b5b61097d89828a0161088f565b92509250509295509295509295565b6000602082840312156109a2576109a161080c565b5b60006109b08482850161086b565b91505092915050565b6109c2816105c7565b82525050565b600082825260208201905092915050565b60006109e482610601565b6109ee81856109c8565b93506109fe81856020860161061d565b610a0781610650565b840191505092915050565b600060c082019050610a2760008301896109b9565b610a3460208301886109b9565b610a4160408301876107e2565b8181036060830152610a5381866109d9565b9050610a6260808301856107e2565b81810360a0830152610a7481846109d9565b9050979650505050505050565b7f4e487b7100000000000000000000000000000000000000000000000000000000600052601160045260246000fd5b6000610abb826105e8565b9150610ac6836105e8565b9250827fffffffffffffffffffffffffffffffffffffffffffffffffffffffffffffffff03821115610afb57610afa610a81565b5b828201905092915050565b6000819050919050565b6000610b2b610b26610b21846105a7565b610b06565b6105a7565b9050919050565b6000610b3d82610b10565b9050919050565b6000610b4f82610b32565b9050919050565b610b5f81610b44565b82525050565b82818337600083830152505050565b6000610b8083856109c8565b9350610b8d838584610b65565b610b9683610650565b840190509392505050565b600060c082019050610bb6600083018b6109b9565b610bc3602083018a610b56565b610bd060408301896107e2565b8181036060830152610be3818789610b74565b9050610bf260808301866107e2565b81810360a0830152610c05818486610b74565b90509998505050505050505050565b7f4e487b7100000000000000000000000000000000000000000000000000000000600052602260045260246000fd5b60006002820490506001821680610c5b57607f821691505b60208210811415610c6f57610c6e610c14565b5b5091905056fea26469706673582212203727eedf5c362f58d8294407f1a48ec9efeb78d8b84cbb30bc4be3432892d09964736f6c63430008090033",
  "linkReferences": {},
  "deployedLinkReferences": {}
}